{
  "contractName": "Campaign",
  "abi": [
    {
      "inputs": [
        {
          "internalType": "address",
          "name": "creator",
          "type": "address"
        },
        {
          "internalType": "string",
          "name": "organization_name",
          "type": "string"
        },
        {
          "internalType": "string",
          "name": "title",
          "type": "string"
        },
        {
          "internalType": "string",
          "name": "description",
          "type": "string"
        },
        {
          "internalType": "uint256",
          "name": "minimum_amount",
          "type": "uint256"
        },
        {
          "internalType": "uint256",
          "name": "target",
          "type": "uint256"
        },
        {
          "internalType": "uint256",
          "name": "end_date",
          "type": "uint256"
        },
        {
          "internalType": "string",
          "name": "image",
          "type": "string"
        }
      ],
      "stateMutability": "nonpayable",
      "type": "constructor"
    },
    {
      "anonymous": false,
      "inputs": [
        {
          "indexed": true,
          "internalType": "address",
          "name": "contributor",
          "type": "address"
        },
        {
          "indexed": false,
          "internalType": "uint256",
          "name": "amount",
          "type": "uint256"
        }
      ],
      "name": "ContributionMade",
      "type": "event"
    },
    {
      "anonymous": false,
      "inputs": [
        {
          "indexed": true,
          "internalType": "uint256",
          "name": "requestId",
          "type": "uint256"
        },
        {
          "indexed": true,
          "internalType": "address",
          "name": "approver",
          "type": "address"
        }
      ],
      "name": "RequestApproved",
      "type": "event"
    },
    {
      "anonymous": false,
      "inputs": [
        {
          "indexed": false,
          "internalType": "uint256",
          "name": "requestId",
          "type": "uint256"
        },
        {
          "indexed": false,
          "internalType": "address",
          "name": "recipient",
          "type": "address"
        }
      ],
      "name": "RequestCompleted",
      "type": "event"
    },
    {
      "anonymous": false,
      "inputs": [
        {
          "indexed": false,
          "internalType": "uint256",
          "name": "requestId",
          "type": "uint256"
        },
        {
          "indexed": false,
          "internalType": "string",
          "name": "description",
          "type": "string"
        },
        {
          "indexed": false,
          "internalType": "uint256",
          "name": "value",
          "type": "uint256"
        }
      ],
      "name": "RequestCreated",
      "type": "event"
    },
    {
      "inputs": [],
      "name": "CampaignDescription",
      "outputs": [
        {
          "internalType": "string",
          "name": "",
          "type": "string"
        }
      ],
      "stateMutability": "view",
      "type": "function"
    },
    {
      "inputs": [],
      "name": "CampaignName",
      "outputs": [
        {
          "internalType": "string",
          "name": "",
          "type": "string"
        }
      ],
      "stateMutability": "view",
      "type": "function"
    },
    {
      "inputs": [],
      "name": "End_Date",
      "outputs": [
        {
          "internalType": "uint256",
          "name": "",
          "type": "uint256"
        }
      ],
      "stateMutability": "view",
      "type": "function"
    },
    {
      "inputs": [],
      "name": "OrganizationName",
      "outputs": [
        {
          "internalType": "string",
          "name": "",
          "type": "string"
        }
      ],
      "stateMutability": "view",
      "type": "function"
    },
    {
      "inputs": [
        {
          "internalType": "address",
          "name": "",
          "type": "address"
        }
      ],
      "name": "approvers",
      "outputs": [
        {
          "internalType": "bool",
          "name": "",
          "type": "bool"
        }
      ],
      "stateMutability": "view",
      "type": "function"
    },
    {
      "inputs": [],
      "name": "approversCount",
      "outputs": [
        {
          "internalType": "uint256",
          "name": "",
          "type": "uint256"
        }
      ],
      "stateMutability": "view",
      "type": "function"
    },
    {
      "inputs": [
        {
          "internalType": "uint256",
          "name": "",
          "type": "uint256"
        }
      ],
      "name": "contributers",
      "outputs": [
        {
          "internalType": "address",
          "name": "",
          "type": "address"
        }
      ],
      "stateMutability": "view",
      "type": "function"
    },
    {
      "inputs": [],
      "name": "imageUrl",
      "outputs": [
        {
          "internalType": "string",
          "name": "",
          "type": "string"
        }
      ],
      "stateMutability": "view",
      "type": "function"
    },
    {
      "inputs": [],
      "name": "manager",
      "outputs": [
        {
          "internalType": "address",
          "name": "",
          "type": "address"
        }
      ],
      "stateMutability": "view",
      "type": "function"
    },
    {
      "inputs": [],
      "name": "minimumContribution",
      "outputs": [
        {
          "internalType": "uint256",
          "name": "",
          "type": "uint256"
        }
      ],
      "stateMutability": "view",
      "type": "function"
    },
    {
      "inputs": [
        {
          "internalType": "uint256",
          "name": "",
          "type": "uint256"
        }
      ],
      "name": "requests",
      "outputs": [
        {
          "internalType": "string",
          "name": "description",
          "type": "string"
        },
        {
          "internalType": "uint256",
          "name": "value",
          "type": "uint256"
        },
        {
          "internalType": "string",
          "name": "beforeImg",
          "type": "string"
        },
        {
          "internalType": "string",
          "name": "afterImg",
          "type": "string"
        },
        {
          "internalType": "address",
          "name": "recipient",
          "type": "address"
        },
        {
          "internalType": "bool",
          "name": "complete",
          "type": "bool"
        },
        {
          "internalType": "uint256",
          "name": "approvalCount",
          "type": "uint256"
        }
      ],
      "stateMutability": "view",
      "type": "function"
    },
    {
      "inputs": [],
      "name": "targetToAchieve",
      "outputs": [
        {
          "internalType": "uint256",
          "name": "",
          "type": "uint256"
        }
      ],
      "stateMutability": "view",
      "type": "function"
    },
    {
      "inputs": [],
      "name": "contribute",
      "outputs": [],
      "stateMutability": "payable",
      "type": "function"
    },
    {
      "inputs": [
        {
          "internalType": "string",
          "name": "description",
          "type": "string"
        },
        {
          "internalType": "uint256",
          "name": "value",
          "type": "uint256"
        },
        {
          "internalType": "string",
          "name": "beforeImage",
          "type": "string"
        },
        {
          "internalType": "string",
          "name": "afterImage",
          "type": "string"
        }
      ],
      "name": "createRequest",
      "outputs": [],
      "stateMutability": "nonpayable",
      "type": "function"
    },
    {
      "inputs": [
        {
          "internalType": "uint256",
          "name": "index",
          "type": "uint256"
        }
      ],
      "name": "approveRequest",
      "outputs": [],
      "stateMutability": "nonpayable",
      "type": "function"
    },
    {
      "inputs": [
        {
          "internalType": "uint256",
          "name": "index",
          "type": "uint256"
        }
      ],
      "name": "isRequestApproved",
      "outputs": [
        {
          "internalType": "bool",
          "name": "",
          "type": "bool"
        }
      ],
      "stateMutability": "view",
      "type": "function"
    },
    {
      "inputs": [
        {
          "internalType": "uint256",
          "name": "index",
          "type": "uint256"
        }
      ],
      "name": "finalizeRequest",
      "outputs": [],
      "stateMutability": "nonpayable",
      "type": "function"
    },
    {
      "inputs": [
        {
          "internalType": "uint256",
          "name": "index",
          "type": "uint256"
        }
      ],
      "name": "getRequestDetails",
      "outputs": [
        {
          "internalType": "string",
          "name": "description",
          "type": "string"
        },
        {
          "internalType": "uint256",
          "name": "value",
          "type": "uint256"
        },
        {
          "internalType": "address",
          "name": "recipient",
          "type": "address"
        },
        {
          "internalType": "bool",
          "name": "complete",
          "type": "bool"
        },
        {
          "internalType": "uint256",
          "name": "approvalCount",
          "type": "uint256"
        }
      ],
      "stateMutability": "view",
      "type": "function"
    },
    {
      "inputs": [],
      "name": "getSummary",
      "outputs": [
        {
          "internalType": "address",
          "name": "",
          "type": "address"
        },
        {
          "internalType": "string",
          "name": "",
          "type": "string"
        },
        {
          "internalType": "string",
          "name": "",
          "type": "string"
        },
        {
          "internalType": "string",
          "name": "",
          "type": "string"
        },
        {
          "internalType": "uint256",
          "name": "",
          "type": "uint256"
        },
        {
          "internalType": "uint256",
          "name": "",
          "type": "uint256"
        },
        {
          "internalType": "uint256",
          "name": "",
          "type": "uint256"
        },
        {
          "internalType": "uint256",
          "name": "",
          "type": "uint256"
        },
        {
          "internalType": "string",
          "name": "",
          "type": "string"
        },
        {
          "internalType": "uint256",
          "name": "",
          "type": "uint256"
        },
        {
          "internalType": "uint256",
          "name": "",
          "type": "uint256"
        },
        {
          "internalType": "address[]",
          "name": "",
          "type": "address[]"
        }
      ],
      "stateMutability": "view",
      "type": "function"
    },
    {
      "inputs": [],
      "name": "getRequestsCount",
      "outputs": [
        {
          "internalType": "uint256",
          "name": "",
          "type": "uint256"
        }
      ],
      "stateMutability": "view",
      "type": "function"
    }
  ],
  "bytecode": "0x60806040526001600960006101000a81548160ff0219169083151502179055503480156200002c57600080fd5b5060405162002dcb38038062002dcb833981810160405281019062000052919062000407565b87600160006101000a81548173ffffffffffffffffffffffffffffffffffffffff021916908373ffffffffffffffffffffffffffffffffffffffff1602179055508660029080519060200190620000ab9291906200011a565b508560039080519060200190620000c49291906200011a565b508460049080519060200190620000dd9291906200011a565b5083600581905550826006819055508160078190555080600890805190602001906200010b9291906200011a565b505050505050505050620005b0565b82805462000128906200057b565b90600052602060002090601f0160209004810192826200014c576000855562000198565b82601f106200016757805160ff191683800117855562000198565b8280016001018555821562000198579182015b82811115620001975782518255916020019190600101906200017a565b5b509050620001a79190620001ab565b5090565b5b80821115620001c6576000816000905550600101620001ac565b5090565b6000604051905090565b600080fd5b600080fd5b600073ffffffffffffffffffffffffffffffffffffffff82169050919050565b60006200020b82620001de565b9050919050565b6200021d81620001fe565b81146200022957600080fd5b50565b6000815190506200023d8162000212565b92915050565b600080fd5b600080fd5b6000601f19601f8301169050919050565b7f4e487b7100000000000000000000000000000000000000000000000000000000600052604160045260246000fd5b62000298826200024d565b810181811067ffffffffffffffff82111715620002ba57620002b96200025e565b5b80604052505050565b6000620002cf620001ca565b9050620002dd82826200028d565b919050565b600067ffffffffffffffff8211156200030057620002ff6200025e565b5b6200030b826200024d565b9050602081019050919050565b60005b83811015620003385780820151818401526020810190506200031b565b8381111562000348576000848401525b50505050565b6000620003656200035f84620002e2565b620002c3565b90508281526020810184848401111562000384576200038362000248565b5b6200039184828562000318565b509392505050565b600082601f830112620003b157620003b062000243565b5b8151620003c38482602086016200034e565b91505092915050565b6000819050919050565b620003e181620003cc565b8114620003ed57600080fd5b50565b6000815190506200040181620003d6565b92915050565b600080600080600080600080610100898b0312156200042b576200042a620001d4565b5b60006200043b8b828c016200022c565b985050602089015167ffffffffffffffff8111156200045f576200045e620001d9565b5b6200046d8b828c0162000399565b975050604089015167ffffffffffffffff811115620004915762000490620001d9565b5b6200049f8b828c0162000399565b965050606089015167ffffffffffffffff811115620004c357620004c2620001d9565b5b620004d18b828c0162000399565b9550506080620004e48b828c01620003f0565b94505060a0620004f78b828c01620003f0565b93505060c06200050a8b828c01620003f0565b92505060e089015167ffffffffffffffff8111156200052e576200052d620001d9565b5b6200053c8b828c0162000399565b9150509295985092959890939650565b7f4e487b7100000000000000000000000000000000000000000000000000000000600052602260045260246000fd5b600060028204905060018216806200059457607f821691505b602082108103620005aa57620005a96200054c565b5b50919050565b61280b80620005c06000396000f3fe60806040526004361061011f5760003560e01c806381d12c58116100a0578063b2a87fc311610064578063b2a87fc3146103fe578063d4679c2614610429578063d7bb99ba14610454578063d7d1bbdb1461045e578063f34d4c63146104875761011f565b806381d12c581461030f57806382fde09314610352578063937e09b11461037d57806397654a8c146103a8578063aba83150146103d35761011f565b80633410452a116100e75780633410452a1461022f5780634051ddac1461025a578063481c6a75146102905780637380b4ce146102bb5780637e7cd1b3146102e45761011f565b80630177122714610124578063034410061461014f5780630a144391146101785780631478803a146101b55780631fbed579146101f2575b600080fd5b34801561013057600080fd5b506101396104c8565b60405161014691906118f3565b60405180910390f35b34801561015b57600080fd5b506101766004803603810190610171919061194e565b6104ce565b005b34801561018457600080fd5b5061019f600480360381019061019a91906119d9565b61073a565b6040516101ac9190611a21565b60405180910390f35b3480156101c157600080fd5b506101dc60048036038101906101d7919061194e565b61075a565b6040516101e99190611a21565b60405180910390f35b3480156101fe57600080fd5b506102196004803603810190610214919061194e565b6107a4565b6040516102269190611a4b565b60405180910390f35b34801561023b57600080fd5b506102446107e3565b60405161025191906118f3565b60405180910390f35b34801561026657600080fd5b5061026f6107ef565b6040516102879c9b9a99989796959493929190611bbd565b60405180910390f35b34801561029c57600080fd5b506102a5610b21565b6040516102b29190611a4b565b60405180910390f35b3480156102c757600080fd5b506102e260048036038101906102dd9190611dcf565b610b47565b005b3480156102f057600080fd5b506102f9610cf7565b6040516103069190611e8a565b60405180910390f35b34801561031b57600080fd5b506103366004803603810190610331919061194e565b610d85565b6040516103499796959493929190611eac565b60405180910390f35b34801561035e57600080fd5b50610367610f9c565b60405161037491906118f3565b60405180910390f35b34801561038957600080fd5b50610392610fa2565b60405161039f91906118f3565b60405180910390f35b3480156103b457600080fd5b506103bd610fa8565b6040516103ca9190611e8a565b60405180910390f35b3480156103df57600080fd5b506103e8611036565b6040516103f59190611e8a565b60405180910390f35b34801561040a57600080fd5b506104136110c4565b60405161042091906118f3565b60405180910390f35b34801561043557600080fd5b5061043e6110ca565b60405161044b9190611e8a565b60405180910390f35b61045c611158565b005b34801561046a57600080fd5b506104856004803603810190610480919061194e565b611432565b005b34801561049357600080fd5b506104ae60048036038101906104a9919061194e565b611725565b6040516104bf959493929190611f30565b60405180910390f35b60075481565b600160009054906101000a900473ffffffffffffffffffffffffffffffffffffffff1673ffffffffffffffffffffffffffffffffffffffff163373ffffffffffffffffffffffffffffffffffffffff161461052857600080fd5b600080828154811061053d5761053c611f8a565b5b906000526020600020906007020190508060040160149054906101000a900460ff161561059f576040517f08c379a000000000000000000000000000000000000000000000000000000000815260040161059690612005565b60405180910390fd5b6105a88261075a565b6105e7576040517f08c379a00000000000000000000000000000000000000000000000000000000081526004016105de90612097565b60405180910390fd5b60018160040160146101000a81548160ff02191690831515021790555060008160040160009054906101000a900473ffffffffffffffffffffffffffffffffffffffff1673ffffffffffffffffffffffffffffffffffffffff168260010154604051610652906120e8565b60006040518083038185875af1925050503d806000811461068f576040519150601f19603f3d011682016040523d82523d6000602084013e610694565b606091505b50509050806106d8576040517f08c379a00000000000000000000000000000000000000000000000000000000081526004016106cf90612149565b60405180910390fd5b7f1d961eb7779cdf87f83b3c5ca1e5a7b0b7832f5fc1f9b813fea6787daf0e884c838360040160009054906101000a900473ffffffffffffffffffffffffffffffffffffffff1660405161072d929190612169565b60405180910390a1505050565b600b6020528060005260406000206000915054906101000a900460ff1681565b6000806000838154811061077157610770611f8a565b5b9060005260206000209060070201905060006002600c5461079291906121f0565b90508082600501541192505050919050565b600a81815481106107b457600080fd5b906000526020600020016000915054906101000a900473ffffffffffffffffffffffffffffffffffffffff1681565b60008080549050905090565b6000606080606060008060008060606000806060600160009054906101000a900473ffffffffffffffffffffffffffffffffffffffff16600260036004476005546006546007546008600080549050600c54600a8a805461084f90612250565b80601f016020809104026020016040519081016040528092919081815260200182805461087b90612250565b80156108c85780601f1061089d576101008083540402835291602001916108c8565b820191906000526020600020905b8154815290600101906020018083116108ab57829003601f168201915b50505050509a508980546108db90612250565b80601f016020809104026020016040519081016040528092919081815260200182805461090790612250565b80156109545780601f1061092957610100808354040283529160200191610954565b820191906000526020600020905b81548152906001019060200180831161093757829003601f168201915b5050505050995088805461096790612250565b80601f016020809104026020016040519081016040528092919081815260200182805461099390612250565b80156109e05780601f106109b5576101008083540402835291602001916109e0565b820191906000526020600020905b8154815290600101906020018083116109c357829003601f168201915b505050505098508380546109f390612250565b80601f0160208091040260200160405190810160405280929190818152602001828054610a1f90612250565b8015610a6c5780601f10610a4157610100808354040283529160200191610a6c565b820191906000526020600020905b815481529060010190602001808311610a4f57829003601f168201915b5050505050935080805480602002602001604051908101604052809291908181526020018280548015610af457602002820191906000526020600020905b8160009054906101000a900473ffffffffffffffffffffffffffffffffffffffff1673ffffffffffffffffffffffffffffffffffffffff1681526020019060010190808311610aaa575b505050505090509b509b509b509b509b509b509b509b509b509b509b509b50909192939495969798999a9b565b600160009054906101000a900473ffffffffffffffffffffffffffffffffffffffff1681565b600160009054906101000a900473ffffffffffffffffffffffffffffffffffffffff1673ffffffffffffffffffffffffffffffffffffffff163373ffffffffffffffffffffffffffffffffffffffff1614610ba157600080fd5b600080600181600181540180825580915050039060005260206000209060070201905084816000019080519060200190610bdc929190611837565b5083816001018190555082816002019080519060200190610bfe929190611837565b5081816003019080519060200190610c17929190611837565b50600160009054906101000a900473ffffffffffffffffffffffffffffffffffffffff168160040160006101000a81548173ffffffffffffffffffffffffffffffffffffffff021916908373ffffffffffffffffffffffffffffffffffffffff16021790555060008160040160146101000a81548160ff021916908315150217905550600081600501819055507ffd831c7c44ce8189cb2d2474d9e840354d60c0640174dbfda10485ca4934c2f76001600080549050610cd79190612281565b8686604051610ce8939291906122b5565b60405180910390a15050505050565b60038054610d0490612250565b80601f0160208091040260200160405190810160405280929190818152602001828054610d3090612250565b8015610d7d5780601f10610d5257610100808354040283529160200191610d7d565b820191906000526020600020905b815481529060010190602001808311610d6057829003601f168201915b505050505081565b60008181548110610d9557600080fd5b9060005260206000209060070201600091509050806000018054610db890612250565b80601f0160208091040260200160405190810160405280929190818152602001828054610de490612250565b8015610e315780601f10610e0657610100808354040283529160200191610e31565b820191906000526020600020905b815481529060010190602001808311610e1457829003601f168201915b505050505090806001015490806002018054610e4c90612250565b80601f0160208091040260200160405190810160405280929190818152602001828054610e7890612250565b8015610ec55780601f10610e9a57610100808354040283529160200191610ec5565b820191906000526020600020905b815481529060010190602001808311610ea857829003601f168201915b505050505090806003018054610eda90612250565b80601f0160208091040260200160405190810160405280929190818152602001828054610f0690612250565b8015610f535780601f10610f2857610100808354040283529160200191610f53565b820191906000526020600020905b815481529060010190602001808311610f3657829003601f168201915b5050505050908060040160009054906101000a900473ffffffffffffffffffffffffffffffffffffffff16908060040160149054906101000a900460ff16908060050154905087565b600c5481565b60055481565b60048054610fb590612250565b80601f0160208091040260200160405190810160405280929190818152602001828054610fe190612250565b801561102e5780601f106110035761010080835404028352916020019161102e565b820191906000526020600020905b81548152906001019060200180831161101157829003601f168201915b505050505081565b6008805461104390612250565b80601f016020809104026020016040519081016040528092919081815260200182805461106f90612250565b80156110bc5780601f10611091576101008083540402835291602001916110bc565b820191906000526020600020905b81548152906001019060200180831161109f57829003601f168201915b505050505081565b60065481565b600280546110d790612250565b80601f016020809104026020016040519081016040528092919081815260200182805461110390612250565b80156111505780601f1061112557610100808354040283529160200191611150565b820191906000526020600020905b81548152906001019060200180831161113357829003601f168201915b505050505081565b600b60003373ffffffffffffffffffffffffffffffffffffffff1673ffffffffffffffffffffffffffffffffffffffff16815260200190815260200160002060009054906101000a900460ff16156111e5576040517f08c379a00000000000000000000000000000000000000000000000000000000081526004016111dc90612365565b60405180910390fd5b6005543411611229576040517f08c379a0000000000000000000000000000000000000000000000000000000008152600401611220906123f7565b60405180910390fd5b426007541161126d576040517f08c379a000000000000000000000000000000000000000000000000000000000815260040161126490612463565b60405180910390fd5b600654344761127c9190612483565b11156112bd576040517f08c379a00000000000000000000000000000000000000000000000000000000081526004016112b49061254b565b60405180910390fd5b600b60003373ffffffffffffffffffffffffffffffffffffffff1673ffffffffffffffffffffffffffffffffffffffff16815260200190815260200160002060009054906101000a900460ff166113e257600a339080600181540180825580915050600190039060005260206000200160009091909190916101000a81548173ffffffffffffffffffffffffffffffffffffffff021916908373ffffffffffffffffffffffffffffffffffffffff1602179055506001600b60003373ffffffffffffffffffffffffffffffffffffffff1673ffffffffffffffffffffffffffffffffffffffff16815260200190815260200160002060006101000a81548160ff021916908315150217905550600c60008154809291906113dc9061256b565b91905055505b3373ffffffffffffffffffffffffffffffffffffffff167f6770260ea820d2f539364e7617e021543aaf6d192f2fd2a47c20db6bd99a4eb93460405161142891906118f3565b60405180910390a2565b600b60003373ffffffffffffffffffffffffffffffffffffffff1673ffffffffffffffffffffffffffffffffffffffff16815260200190815260200160002060009054906101000a900460ff166114be576040517f08c379a00000000000000000000000000000000000000000000000000000000081526004016114b590612625565b60405180910390fd5b6000805490508110611505576040517f08c379a00000000000000000000000000000000000000000000000000000000081526004016114fc90612691565b60405180910390fd5b6000818154811061151957611518611f8a565b5b906000526020600020906007020160060160003373ffffffffffffffffffffffffffffffffffffffff1673ffffffffffffffffffffffffffffffffffffffff16815260200190815260200160002060009054906101000a900460ff16156115b5576040517f08c379a00000000000000000000000000000000000000000000000000000000081526004016115ac90612723565b60405180910390fd5b600081815481106115c9576115c8611f8a565b5b906000526020600020906007020160040160149054906101000a900460ff1615611628576040517f08c379a000000000000000000000000000000000000000000000000000000000815260040161161f906127b5565b60405180910390fd5b60016000828154811061163e5761163d611f8a565b5b906000526020600020906007020160060160003373ffffffffffffffffffffffffffffffffffffffff1673ffffffffffffffffffffffffffffffffffffffff16815260200190815260200160002060006101000a81548160ff021916908315150217905550600081815481106116b7576116b6611f8a565b5b906000526020600020906007020160050160008154809291906116d99061256b565b91905055503373ffffffffffffffffffffffffffffffffffffffff16817ff3dc904660a0ea05aba8dfa1e21fbc4fb2914be2a3029da7b0fdd3e5eee20ddb60405160405180910390a350565b6060600080600080600080878154811061174257611741611f8a565b5b906000526020600020906007020190508060000181600101548260040160009054906101000a900473ffffffffffffffffffffffffffffffffffffffff168360040160149054906101000a900460ff1684600501548480546117a390612250565b80601f01602080910402602001604051908101604052809291908181526020018280546117cf90612250565b801561181c5780601f106117f15761010080835404028352916020019161181c565b820191906000526020600020905b8154815290600101906020018083116117ff57829003601f168201915b50505050509450955095509550955095505091939590929450565b82805461184390612250565b90600052602060002090601f01602090048101928261186557600085556118ac565b82601f1061187e57805160ff19168380011785556118ac565b828001600101855582156118ac579182015b828111156118ab578251825591602001919060010190611890565b5b5090506118b991906118bd565b5090565b5b808211156118d65760008160009055506001016118be565b5090565b6000819050919050565b6118ed816118da565b82525050565b600060208201905061190860008301846118e4565b92915050565b6000604051905090565b600080fd5b600080fd5b61192b816118da565b811461193657600080fd5b50565b60008135905061194881611922565b92915050565b60006020828403121561196457611963611918565b5b600061197284828501611939565b91505092915050565b600073ffffffffffffffffffffffffffffffffffffffff82169050919050565b60006119a68261197b565b9050919050565b6119b68161199b565b81146119c157600080fd5b50565b6000813590506119d3816119ad565b92915050565b6000602082840312156119ef576119ee611918565b5b60006119fd848285016119c4565b91505092915050565b60008115159050919050565b611a1b81611a06565b82525050565b6000602082019050611a366000830184611a12565b92915050565b611a458161199b565b82525050565b6000602082019050611a606000830184611a3c565b92915050565b600081519050919050565b600082825260208201905092915050565b60005b83811015611aa0578082015181840152602081019050611a85565b83811115611aaf576000848401525b50505050565b6000601f19601f8301169050919050565b6000611ad182611a66565b611adb8185611a71565b9350611aeb818560208601611a82565b611af481611ab5565b840191505092915050565b600081519050919050565b600082825260208201905092915050565b6000819050602082019050919050565b611b348161199b565b82525050565b6000611b468383611b2b565b60208301905092915050565b6000602082019050919050565b6000611b6a82611aff565b611b748185611b0a565b9350611b7f83611b1b565b8060005b83811015611bb0578151611b978882611b3a565b9750611ba283611b52565b925050600181019050611b83565b5085935050505092915050565b600061018082019050611bd3600083018f611a3c565b8181036020830152611be5818e611ac6565b90508181036040830152611bf9818d611ac6565b90508181036060830152611c0d818c611ac6565b9050611c1c608083018b6118e4565b611c2960a083018a6118e4565b611c3660c08301896118e4565b611c4360e08301886118e4565b818103610100830152611c568187611ac6565b9050611c666101208301866118e4565b611c746101408301856118e4565b818103610160830152611c878184611b5f565b90509d9c50505050505050505050505050565b600080fd5b600080fd5b7f4e487b7100000000000000000000000000000000000000000000000000000000600052604160045260246000fd5b611cdc82611ab5565b810181811067ffffffffffffffff82111715611cfb57611cfa611ca4565b5b80604052505050565b6000611d0e61190e565b9050611d1a8282611cd3565b919050565b600067ffffffffffffffff821115611d3a57611d39611ca4565b5b611d4382611ab5565b9050602081019050919050565b82818337600083830152505050565b6000611d72611d6d84611d1f565b611d04565b905082815260208101848484011115611d8e57611d8d611c9f565b5b611d99848285611d50565b509392505050565b600082601f830112611db657611db5611c9a565b5b8135611dc6848260208601611d5f565b91505092915050565b60008060008060808587031215611de957611de8611918565b5b600085013567ffffffffffffffff811115611e0757611e0661191d565b5b611e1387828801611da1565b9450506020611e2487828801611939565b935050604085013567ffffffffffffffff811115611e4557611e4461191d565b5b611e5187828801611da1565b925050606085013567ffffffffffffffff811115611e7257611e7161191d565b5b611e7e87828801611da1565b91505092959194509250565b60006020820190508181036000830152611ea48184611ac6565b905092915050565b600060e0820190508181036000830152611ec6818a611ac6565b9050611ed560208301896118e4565b8181036040830152611ee78188611ac6565b90508181036060830152611efb8187611ac6565b9050611f0a6080830186611a3c565b611f1760a0830185611a12565b611f2460c08301846118e4565b98975050505050505050565b600060a0820190508181036000830152611f4a8188611ac6565b9050611f5960208301876118e4565b611f666040830186611a3c565b611f736060830185611a12565b611f8060808301846118e4565b9695505050505050565b7f4e487b7100000000000000000000000000000000000000000000000000000000600052603260045260246000fd5b7f5265717565737420616c726561647920636f6d706c657465642e000000000000600082015250565b6000611fef601a83611a71565b9150611ffa82611fb9565b602082019050919050565b6000602082019050818103600083015261201e81611fe2565b9050919050565b7f4e6f7420656e6f75676820617070726f76616c7320666f722066696e616c697a60008201527f6174696f6e2e0000000000000000000000000000000000000000000000000000602082015250565b6000612081602683611a71565b915061208c82612025565b604082019050919050565b600060208201905081810360008301526120b081612074565b9050919050565b600081905092915050565b50565b60006120d26000836120b7565b91506120dd826120c2565b600082019050919050565b60006120f3826120c5565b9150819050919050565b7f5472616e73666572206661696c65642e00000000000000000000000000000000600082015250565b6000612133601083611a71565b915061213e826120fd565b602082019050919050565b6000602082019050818103600083015261216281612126565b9050919050565b600060408201905061217e60008301856118e4565b61218b6020830184611a3c565b9392505050565b7f4e487b7100000000000000000000000000000000000000000000000000000000600052601260045260246000fd5b7f4e487b7100000000000000000000000000000000000000000000000000000000600052601160045260246000fd5b60006121fb826118da565b9150612206836118da565b92508261221657612215612192565b5b828204905092915050565b7f4e487b7100000000000000000000000000000000000000000000000000000000600052602260045260246000fd5b6000600282049050600182168061226857607f821691505b60208210810361227b5761227a612221565b5b50919050565b600061228c826118da565b9150612297836118da565b9250828210156122aa576122a96121c1565b5b828203905092915050565b60006060820190506122ca60008301866118e4565b81810360208301526122dc8185611ac6565b90506122eb60408301846118e4565b949350505050565b7f596f75206861766520616c726561647920636f6e747269627574656420746f2060008201527f746869732063616d706169676e2e000000000000000000000000000000000000602082015250565b600061234f602e83611a71565b915061235a826122f3565b604082019050919050565b6000602082019050818103600083015261237e81612342565b9050919050565b7f436f6e747269627574696f6e206973206c657373207468616e20746865206d6960008201527f6e696d756d20616d6f756e742e00000000000000000000000000000000000000602082015250565b60006123e1602d83611a71565b91506123ec82612385565b604082019050919050565b60006020820190508181036000830152612410816123d4565b9050919050565b7f5468652063616d706169676e2068617320656e6465642e000000000000000000600082015250565b600061244d601783611a71565b915061245882612417565b602082019050919050565b6000602082019050818103600083015261247c81612440565b9050919050565b600061248e826118da565b9150612499836118da565b9250827fffffffffffffffffffffffffffffffffffffffffffffffffffffffffffffffff038211156124ce576124cd6121c1565b5b828201905092915050565b7f436f6e747269627574696f6e2065786365656473207468652063616d7061696760008201527f6e207461726765742e0000000000000000000000000000000000000000000000602082015250565b6000612535602983611a71565b9150612540826124d9565b604082019050919050565b6000602082019050818103600083015261256481612528565b9050919050565b6000612576826118da565b91507fffffffffffffffffffffffffffffffffffffffffffffffffffffffffffffffff82036125a8576125a76121c1565b5b600182019050919050565b7f4f6e6c7920636f6e7472696275746f72732063616e20617070726f766520726560008201527f7175657374732e00000000000000000000000000000000000000000000000000602082015250565b600061260f602783611a71565b915061261a826125b3565b604082019050919050565b6000602082019050818103600083015261263e81612602565b9050919050565b7f496e76616c6964207265717565737420696e6465782e00000000000000000000600082015250565b600061267b601683611a71565b915061268682612645565b602082019050919050565b600060208201905081810360008301526126aa8161266e565b9050919050565b7f596f75206861766520616c726561647920617070726f7665642074686973207260008201527f6571756573742e00000000000000000000000000000000000000000000000000602082015250565b600061270d602783611a71565b9150612718826126b1565b604082019050919050565b6000602082019050818103600083015261273c81612700565b9050919050565b7f5468697320726571756573742068617320616c7265616479206265656e20666960008201527f6e616c697a65642e000000000000000000000000000000000000000000000000602082015250565b600061279f602883611a71565b91506127aa82612743565b604082019050919050565b600060208201905081810360008301526127ce81612792565b905091905056fea2646970667358221220048ef30f869ef69b3744bb25f106e74ef809f667ee3f6ea1affd83f19d75e83964736f6c634300080d0033",
  "immutableReferences": {},
  "source": "// SPDX-License-Identifier: GPL-3.0\npragma solidity >=0.7.0 <0.9.0;\n\n\ncontract CampaignFactory {\n\n    address[] public deployedCampaigns;\n\n    function createCampaign(\n        string memory organization_name,\n        string memory title,\n        string memory description,\n        uint256 minimum_amount,\n        uint256 target_amount,\n        uint256 end_date,\n        string memory image\n    ) public {\n    \n        Campaign newCampaign = new Campaign(\n            msg.sender,\n            organization_name,\n            title,\n            description,\n            minimum_amount,\n            target_amount,\n            end_date,\n            image\n        );\n        \n        deployedCampaigns.push(address(newCampaign));\n\n    }\n\n    function getDeployedCampaigns() public view returns (address[] memory) {\n        return deployedCampaigns;\n    }\n\n    function getDeployedCampaignsArrayLength() public view returns (uint256) {\n        return deployedCampaigns.length;\n    }\n\n}\n\n//   contract address: 0x301A6A58E52Ad71b341C7589ea45397ab07C8ea4\n\ncontract Campaign {\n\n    event ContributionMade(address indexed contributor, uint256 amount);\n    event RequestCreated(uint256 requestId, string description, uint256 value);\n    event RequestApproved(uint256 indexed requestId, address indexed approver);\n    event RequestCompleted(uint256 requestId, address recipient);\n    \n    struct Request {\n        string description;      // Describes the purpose of the request.\n        uint256 value;          // Amount of funds requested.\n        string beforeImg;         \n        string afterImg;         \n        address recipient;       // Address of the recipient to receive funds.\n        bool complete;           // Tracks if the request has been fulfilled.\n        uint256 approvalCount;   // Number of contributor approvals.\n        mapping(address => bool) approvals; // Mapping to track contributors who approved.\n    }\n\n    Request[] public requests;\n    address public manager;\n    string public OrganizationName;\n    string public CampaignName;\n    string public CampaignDescription;\n    uint256 public minimumContribution;\n    uint256 public targetToAchieve;\n    uint256 public End_Date;\n    string public imageUrl;\n    bool campaignIsActive = true;\n    address[] public contributers;\n    mapping(address => bool) public approvers;\n    uint256 public approversCount;\n\n    modifier restricted() {\n        require(msg.sender == manager);\n        _;\n    }\n\n    constructor(\n        address creator,\n        string memory organization_name,\n        string memory title,\n        string memory description,\n        uint256 minimum_amount,\n        uint256 target,\n        uint256 end_date,\n        string memory image\n    ) {\n        manager = creator;\n        OrganizationName = organization_name;\n        CampaignName = title;\n        CampaignDescription = description;\n        minimumContribution = minimum_amount;\n        targetToAchieve = target;\n        End_Date = end_date;\n        imageUrl = image;\n    }\n\n    function contribute() public payable {\n        require(!approvers[msg.sender], \"You have already contributed to this campaign.\");\n        require(msg.value > minimumContribution, \"Contribution is less than the minimum amount.\");\n        require(End_Date > block.timestamp, \"The campaign has ended.\");\n        require(address(this).balance + msg.value <= targetToAchieve, \"Contribution exceeds the campaign target.\");\n        if (!approvers[msg.sender]) {\n            contributers.push(msg.sender);\n            approvers[msg.sender] = true;\n            approversCount++;\n        }\n        emit ContributionMade(msg.sender, msg.value);\n    }\n\n\n    function createRequest(\n        string memory description, \n        uint256 value,\n        string memory beforeImage,\n        string memory afterImage\n        ) \n    public restricted {\n        Request storage newRequest = requests.push();\n        newRequest.description = description;\n        newRequest.value = value;\n        newRequest.beforeImg = beforeImage;\n        newRequest.afterImg = afterImage;\n        newRequest.recipient = manager;\n        newRequest.complete = false;\n        newRequest.approvalCount = 0;\n        emit RequestCreated(requests.length - 1, description, value);\n    }\n\n\n    function approveRequest(uint256 index) public {\n        require(approvers[msg.sender], \"Only contributors can approve requests.\");\n        require(index < requests.length, \"Invalid request index.\");\n        require(!requests[index].approvals[msg.sender], \"You have already approved this request.\");\n        require(!requests[index].complete, \"This request has already been finalized.\");\n\n        requests[index].approvals[msg.sender] = true;\n        requests[index].approvalCount++;\n\n        emit RequestApproved(index, msg.sender);  // Emit an event to log the approval\n    }\n\n    // function finalizeRequest(uint index) public restricted {\n    //     require(requests[index].approvalCount > (approversCount / 2));\n    //     require(!requests[index].complete);\n\n    //     requests[index].recipient.transfer(requests[index].value);\n    //     requests[index].complete = true;\n    // }\n\n    function isRequestApproved(uint256 index) public view returns (bool) {\n        Request storage request = requests[index];\n        uint256 requiredApprovals = approversCount / 2; // Example threshold (50%)\n        return request.approvalCount > requiredApprovals;\n    }\n\n\n    function finalizeRequest(uint256 index) public restricted {\n        Request storage request = requests[index];\n        require(!request.complete, \"Request already completed.\");\n        // require(request.approvalCount > (approversCount / 2), \"Not enough approvals.\");\n        require(isRequestApproved(index), \"Not enough approvals for finalization.\");\n        request.complete = true;\n        (bool success, ) = request.recipient.call{ value: request.value }(\"\");\n        require(success, \"Transfer failed.\");\n\n        emit RequestCompleted(index, request.recipient);\n    }\n\n\n    function getRequestDetails(uint256 index) public view returns (\n        string memory description,\n        uint256 value,\n        address recipient,\n        bool complete,\n        uint256 approvalCount\n    ) {\n        Request storage request = requests[index];\n        return (\n            request.description,\n            request.value,\n            request.recipient,\n            request.complete,\n            request.approvalCount\n        );\n    }\n\n    function getSummary()\n        public\n        view\n        returns (\n            address,\n            string memory,\n            string memory,\n            string memory,\n            uint256,\n            uint256,\n            uint256,\n            uint256,\n            string memory,\n            uint256,\n            uint256,\n            address[] memory\n        )\n    {\n        return (\n            manager,\n            OrganizationName,\n            CampaignName,\n            CampaignDescription,\n            address(this).balance,\n            minimumContribution,\n            targetToAchieve,\n            End_Date,\n            imageUrl,\n            requests.length,\n            approversCount,\n            contributers\n        );\n    }\n\n    function getRequestsCount() public view returns (uint256) {\n        return requests.length;\n    }\n}\n",
  "sourcePath": "D:\\MajorProjectSem7\\NewCrowdfund\\web3\\contracts\\newcontract.sol",
  "compiler": {
    "name": "solc",
    "version": "0.8.13+commit.abaa5c0e.Emscripten.clang"
  },
  "schemaVersion": "3.4.16",
  "updatedAt": "2024-11-03T19:36:28.280Z",
  "devdoc": {
    "kind": "dev",
    "methods": {},
    "version": 1
  },
  "userdoc": {
    "kind": "user",
    "methods": {},
    "version": 1
  }
}